:060000000A128A11FC2F18
:100F84008316031308103130831203139000831265
:100F9400031308140A128A11DD270A128A11831214
:100FA400031308100A128A11DD270A128A11C92FA5
:100FB4000A128A110028F001F101831203138E0131
:100FC4008F010C1CE62FE72FE32F0C100130F007E4
:100FD4000318F10A0030F1077108803AFF008030ED
:100FE4007F02031DF72F09307002031CFA2FFB2F19
:0C0FF400DF2F080083010A128A11C22FAF
:02400E007A3FF7
:00000001FF
