:060000000A128A11FC2F18
:100F3E0083160313081088100130F5000030F600F8
:100F4E00F301F401D22F831203130814881408300E
:100F5E00F2009D30F1000530F000F00BB42FF10BD4
:100F6E00B42FF20BB42FBB2F83120313081088106B
:100F7E000830F2009D30F1000530F000F00BC52F67
:100F8E00F10BC52FF20BC52FCC2F0130F307031831
:100F9E00F40A0030F40776087402031DD82F750882
:100FAE007302031CDB2FDC2FAA2F3330F200BB3071
:100FBE00F100DF30F000F00BE22FF10BE22FF20B1D
:100FCE00E22FE92F0130F5070318F60A0030F60775
:100FDE00003076020B3003197502031CF72FF82F21
:100FEE00A72FA32F0A128A11002883010A128A1131
:020FFE009F2F23
:02400E007A3FF7
:00000001FF
