:060000000A128A11FC2F18
:100DEA0083160313860183120313860108000F304A
:100DFA008316031385004130831203139F0080304A
:100E0A00831603139F000800F600C73083120313EA
:100E1A009F057608F20002300310F20DFF3E031D13
:100E2A00112F0310720D9F040D30F300FB30F200F6
:100E3A00F20B1D2FF30B1D2F222F831203131F15E5
:100E4A001F19282F292F252F1E08F5008316031393
:100E5A001E08F4007508F1007408F00008000A1270
:100E6A008A11F5260A128A110A128A11FC260A1216
:100E7A008A1183120313A80128080A128A11092762
:100E8A000A128A11831203132808F7007707203EF3
:100E9A008400700883138000840A7108800021305E
:100EAA00F8007630F700F70B582FF80B582F000090
:100EBA00013083120313A80704302802031C662F8B
:100ECA00672F412FA9012908F7007707203E8400E0
:100EDA0083130008F800840A0008F9000130790237
:100EEA00F43003197802031C7B2F7C2FB02F0130BA
:100EFA00F700290A822F0310F70DFF3E031D802FEA
:100F0A00770886041A30F9005E30F8006E30F70070
:100F1A00F70B8D2FF80B8D2FF90B8D2F0000013059
:100F2A00F70083120313290A9C2F0310F70DFF3EC3
:100F3A00031D9A2F7708FF3A86051A30F9005E30AA
:100F4A00F8006E30F700F70BA82FF80BA82FF90B53
:100F5A00A82F0000EE2F2908F7007707203E84000B
:100F6A000008F800840A0008F90001307902F43018
:100F7A00031978020318C22FC32FE22F2908F7009A
:100F8A007707203E84000008F800840A0008F90068
:100F9A00013079022C3003197802031CD52FD62F81
:100FAA00E22F0130F700290ADC2F0310F70DFF3E6C
:100FBA00031DDA2F77088604EE2F0130F700290A7D
:100FCA00E82F0310F70DFF3E031DE62F7708FF3ABF
:100FDA008605013083120313A90704302902031C72
:100FEA00F72FF82F682F3E2F0A128A110028830143
:060FFA000A128A11342FD7
:02400E003A3F37
:00000001FF
