:100000000A128A11FC2F00308A000408840A820731
:1000100000344134443443342034563441344C3475
:0A002000553445343A3420340034DE
:100CFC00F2007208831203138600071407150D30D7
:100D0C00F100FB30F000F00B892EF10B892E8E2EAA
:100D1C008312031307110800F200720883120313E5
:100D2C008600071007150D30F100FB30F000F00BBA
:100D3C009D2EF10B9D2EA22E83120313071108007A
:100D4C00B52E730884000A128A1103200A128A1124
:100D5C000A128A117E260A128A110130F3077308CF
:100D6C0084000A128A1103200A128A11003A031D08
:100D7C00C02EC12EA72E080083160313051486015E
:100D8C00071007110A128A11E3260A128A11013080
:100D9C00F3000A128A11A6260A128A118C300A1242
:100DAC008A1192260A128A110A128A117F270A12B4
:100DBC008A11D42E0A128A11002838300A128A118C
:100DCC0092260A128A110C300A128A1192260A12E1
:100DDC008A1106300A128A1192260A128A11803060
:100DEC000A128A1192260A128A110D30F400FB3075
:100DFC00F300F30BFF2EF40BFF2E042F08007708E3
:100E0C00780403190A2F0B2F382F0130FB00172FF2
:100E1C0001300310F70DF80DFF3E031D0F2F0130AD
:100E2C00FB07F81F1A2F1B2F0E2F78087A02031DB1
:100E3C00212F77087902031C242F252F2B2F7708BD
:100E4C00F9027808031CFA03FA0201300310F80CBB
:100E5C00F70CFF3E031D2C2F0130FB02031D372F17
:100E6C00382F1B2F7A08F8007908F7000800F401D6
:100E7C00F501700871040319442F452F7A2F0130A6
:100E8C00F600512F01300310F00DF10DFF3E031D44
:100E9C00492F0130F607F11F542F552F482F0130E1
:100EAC000310F40DF50DFF3E031D562F7108730250
:100EBC00031D622F70087202031C652F662F6D2FA5
:100ECC007008F2027108031CF303F302741401306E
:100EDC000310F10CF00CFF3E031D6E2F0130F602D7
:100EEC00031D792F7A2F552F7508F1007408F00027
:100EFC000800C030831603139F0085308312031340
:100F0C009F001F198A2F8B2F872F1E08FD00831619
:100F1C0003131E08FC00E830F0000330F1007D08DC
:100F2C00F3007C08F2000A128A113D270A128A117A
:100F3C007008303E0A128A117E260A128A110A3073
:100F4C00F7000030F8006430F0000030F1007D084C
:100F5C00F3007C08F2000A128A113D270A128A114A
:100F6C007108FA007008F9000A128A1105270A1292
:100F7C008A117708303E0A128A117E260A128A11CB
:100F8C000A30F7000030F8000A30F0000030F100B1
:100F9C007D08F3007C08F2000A128A113D270A1220
:100FAC008A117108FA007008F9000A128A110527D3
:100FBC000A128A117708303E0A128A117E260A120A
:100FCC008A110A30F7000030F8007D08FA007C081E
:100FDC00F9000A128A1105270A128A117708303E85
:100FEC000A128A117E260A128A11080083010A123B
:040FFC008A11C22E66
:02400E003A3F37
:00000001FF
