:100000000A128A11EC2F00308A000408840A820741
:1000100000344134443443342034563441344C3475
:0E002000553445343A342034253475340034D8
:100A6400080064008001840A0406031900340406A3
:100A7400342DF000831203130C1E412D422D3C2D06
:100A8400700899000800831603130514413083127B
:100A940003139F008030831603139F000800203047
:100AA40083160313980090308312031398001F30A9
:100AB4008316031399000800831203131F151F19CB
:100AC400642D652D612D1E08F300831603131E0883
:100AD400F2007308F1007208F00008007B2D710821
:100AE400840000080A128A113B250A128A11013077
:100AF400F1077108840083130008031D822D832DE0
:100B0400712D0800323083120313B5003008B6008B
:100B14000030B700B801B901BF01C0013630AC00E4
:100B24000030AD003108AE003530AF000A128A1132
:100B3400A7250A128A118312031338083007B40058
:100B440034088400831380010800831203132E08E1
:100B5400FD00BB2D831203132C08A0002D08A10057
:100B64007D30A2002F08A3000A128A1128270A1236
:100B74008A117D0884000A128A1103200A128A113C
:100B8400003A031DC62DC72DAC2D83120313AC01EF
:100B9400AD010800700871040319D12DD22DFF2D69
:100BA4000130F400DE2D01300310F00DF10DFF3E95
:100BB400031DD62D0130F407F11FE12DE22DD52DB3
:100BC40071087302031DE82D70087202031CEB2DDB
:100BD400EC2DF22D7008F2027108031CF303F302EA
:100BE40001300310F10CF00CFF3E031DF32D013016
:100BF400F402031DFE2DFF2DE22D7308F10072088F
:100C0400F0000800F401F5017008710403190B2EBB
:100C14000C2E412E0130F600182E01300310F00D79
:100C2400F10DFF3E031D102E0130F607F11F1B2EA0
:100C34001C2E0F2E01300310F40DF50DFF3E031D85
:100C44001D2E71087302031D292E70087202031CE5
:100C54002C2E2D2E342E7008F2027108031CF3037F
:100C6400F302741401300310F10CF00CFF3E031D69
:100C7400352E0130F602031D402E412E1C2E750820
:100C8400F1007408F00008000A128A1151250A12B2
:100C94008A110A128A1145250A128A110A128A1126
:100CA4005E250A128A11710883120313D900700891
:100CB400D8004430B0000130B1005908B3005808DE
:100CC400B2000A128A1184250A128A114430F100F2
:100CD4000A128A1170250A128A110D300A128A1119
:100CE4003B250A128A110A300A128A113B250A127C
:100CF4008A111A3083120313C3005E30C2006D30B0
:100D0400C100C10B832EC20B832EC30B832E8A2EEC
:100D1400502E0A128A110028720873040319932EA4
:100D2400942E9A2E72087304031D992E9A2EA12EC6
:100D340070080A128A1132250A128A11272F7208A2
:100D4400093EF40073080318013E003EF5007408E0
:100D540084008317751C83130008F600840A0008B6
:100D6400F700760877040319B82EB92EEB2E720813
:100D7400093EF40073080318013E003EF5007408B0
:100D840084008317751C83130008F600840A000886
:100D9400F7007208023EF80073080318013E003E93
:100DA400F900780884008317791C83130008FA007B
:100DB400840A0008FB007B08803AFC007708803A2C
:100DC4007C02031DE72E76087A020318EA2EEB2E26
:100DD400272F720884008317731C83130008F40000
:100DE400840A0008F5007208023EF600730803182E
:100DF400013E003EF700760884008317771C8313B6
:100E040000087407F9007508F8000318F80A801F31
:100E14000C2FF8037808FA007908840083177A1CE9
:100E24008313700880007208023EF40073080318EC
:100E3400013E003EF500740884008317751C83137B
:100E440001308007840A0318800A08008312031300
:100E540022088400000884000A128A1103200A125E
:100E64008A11253A031D372F382FD22F22088400E8
:100E740001308007DA01DB010030DE00FF30DC00E6
:100E8400FF30DD00220884000008AA002A0884003C
:100E94000A128A1103200A128A11753A031D532F6C
:100EA400542FCB2F2308840083130008FF00023043
:100EB40080077F0884000008A600840A0008A700B1
:100EC400220884002A08013E8000C02F2030AB0095
:100ED4000130AB022B08A03E84000A30F000003041
:100EE400F1002708F3002608F2000A128A11CC2523
:100EF4000A128A117008303E831380000A30F00011
:100F04000030F100831203132708F3002608F200CF
:100F14000A128A1104260A128A1171088312031311
:100F2400A7007008A6002608270403199A2F9B2FF0
:100F3400B92F2B08031D9F2FA02F6A2FB92F2B0821
:100F4400A03E840083130008A400A5012408F00037
:100F54002508F1002008F2002108F3000A128A1182
:100F64008E260A128A11013083120313AB07203034
:100F74002B06031DBE2FBF2FA12FEB2F2A088400A1
:100F84000A128A1103200A128A11753A0319682F6A
:100F9400CB2F831203132208840001308007EB2F28
:100FA40022088400000884000A128A1103200A120D
:100FB4008A11A400A5012408F0002508F1002008E6
:100FC400F2002108F3000A128A118E260A128A11ED
:100FD400CB2F080083120313DA01DB01DC01DD01EE
:100FE400DE018313A0308400C0300A128A11332535
:0C0FF4000A128A1183010A128A11462E8B
:02400E007A3FF7
:00000001FF
