:100000000A128A11EC2F00308A000408840A820741
:0800100000342534643400348F
:100988000800783083120313920008006400800185
:10099800840A0406031900340406CB2CF0008312E1
:1009A80003130C1ED82CD92CD32C700899000800DE
:1009B800831603138717BF308705203098009030BF
:1009C8008312031398001F3083160313990008003D
:1009D800F71BEF2CF02CF12CFC2C7609F80077098A
:1009E800F900F80A0319F90A7808F6007908F700F7
:1009F8000800082D7108840000080A128A11D22400
:100A08000A128A110130F107710884008313000863
:100A1800031D0F2D102DFE2C080083120313121531
:100A2800F001F1018C1C192D1A2D162D8C10013096
:100A3800F0070318F10A0030F10704307102C430DE
:100A480003197002031C292D2A2D162D0800333096
:100A580083120313B6003108B7000030B800B9019B
:100A6800BA01C001C1013730AD000030AE00320814
:100A7800AF003630B0000A128A114E250A128A11C8
:100A88008312031339083107B5003508840083132E
:100A980080010800831203132F08FD00622D8312C2
:100AA80003132D08A0002E08A1007D30A2003008F5
:100AB800A3000A128A1106270A128A117D088400E7
:100AC8000A128A1103200A128A11003A031D6D2D99
:100AD8006E2D532D83120313AD01AE0108000A12C7
:100AE8008A11C5240A128A110A128A11DC240A12F0
:100AF8008A1183120313CE01443083120313B10009
:100B08000130B2004E08C200C3014208B3004308D6
:100B1800B4000A128A112B250A128A114430F100F6
:100B28000A128A11FD240A128A1101308312031352
:100B3800CE070D300A128A11D2240A128A110A30FD
:100B48000A128A11D2240A128A110A128A1111254C
:100B58000A128A11802D0A128A110028F501F31F42
:100B6800B62DB72DBE2DF209F309F20A0319F30ABF
:100B78000130F500F11FC12DC22DC72DF009F10973
:100B8800F00A0319F10A700871040319CC2DCD2D50
:100B9800FA2D0130F400D92D01300310F00DF10DBC
:100BA800FF3E031DD12D0130F407F11FDC2DDD2D93
:100BB800D02D71087302031DE32D70087202031C07
:100BC800E62DE72DED2D7008F2027108031CF303E2
:100BD800F30201300310F10CF00CFF3E031DEE2D63
:100BE8000130F402031DF92DFA2DDD2D75080319C6
:100BF800FE2DFF2D042EF209F309F20A0319F30A58
:100C08007308F1007208F0000800F501F11F0D2EBD
:100C18000E2E152EF009F109F00A0319F10A013018
:100C2800F500F31F182E192E202EF209F309F20AE7
:100C38000319F30A0130F506F601F701700871048B
:100C48000319272E282E5D2E0130F400342E013092
:100C58000310F00DF10DFF3E031D2C2E0130F4079B
:100C6800F11F372E382E2B2E01300310F60DF70DFD
:100C7800FF3E031D392E71087302031D452E7008AF
:100C88007202031C482E492E502E7008F202710879
:100C9800031CF303F302761401300310F10CF00C7B
:100CA800FF3E031D512E0130F402031D5C2E5D2E04
:100CB800382E75080319612E622E672EF609F7097A
:100CC800F60A0319F70A7708F1007608F000080019
:100CD800720873040319712E722E782E7208730429
:100CE800031D772E782E7F2E70080A128A11C424CD
:100CF8000A128A11052F7208093EF40073080318B6
:100D0800013E003EF500740884008317751C8313A8
:100D18000008F600840A0008F7007608770403192B
:100D2800962E972EC92E7208093EF40073080318F0
:100D3800013E003EF500740884008317751C831378
:100D48000008F600840A0008F7007208023EF8005E
:100D580073080318013E003EF900780884008317E1
:100D6800791C83130008FA00840A0008FB007B083A
:100D7800803AFC007708803A7C02031DC52E76086D
:100D88007A020318C82EC92E052F7208840083170B
:100D9800731C83130008F400840A0008F500720825
:100DA800023EF60073080318013E003EF70076087D
:100DB80084008317771C831300087407F9007508EB
:100DC800F8000318F80A801FEA2EF8037808FA00DA
:100DD8007908840083177A1C8313700880007208CE
:100DE800023EF40073080318013E003EF500740843
:100DF80084008317751C831301308007840A031845
:100E0800800A080083120313220884000008840063
:100E18000A128A1103200A128A11253A031D152F76
:100E2800162FD22F2208840001308007CF01D0016D
:100E38000030D300FF30D100FF30D20022088400F8
:100E48000008A700270884000A128A1103200A1242
:100E58008A11643A0319312F322F3E2F2708840054
:100E68000A128A1103200A128A11693A031D3D2FBA
:100E78003E2FCB2F2308840083130008FF00023085
:100E880080077F0884000008A800840A0008A900D9
:100E9800220884002708013E80002030AC00A91BEE
:100EA800562F582F0130592F0030A6000130AC02C0
:100EB8002C08A03E84000A30F0000030F100290818
:100EC800F3002808F2000A128A11B2250A128A11C0
:100ED8007108F7007008F6000A128A11EC240A1249
:100EE8008A117608303E831380000A30F000003003
:100EF800F100831203132908F3002808F2000A12EC
:100F08008A1109260A128A11710883120313A9008B
:100F18007008A800280829040319932F942F992FE3
:100F28002C08031D982F992F5A2F2C0803199D2F31
:100F38009E2FC42F26080319A22FA32FC42F0130D8
:100F4800AC022C08A03E84002D3083138000C42FEF
:100F58002C08A03E840083130008A400A5012408DF
:100F6800F0002508F1002008F2002108F3000A1219
:100F78008A116C260A128A11013083120313AC07F6
:100F880020302C06031DC92FCA2FAC2FEB2F83123C
:100F980003132208840001308007EB2F2208840005
:100FA800000884000A128A1103200A128A11A40078
:100FB800A5012408F0002508F1002008F200210806
:100FC800F3000A128A116C260A128A11CB2F080024
:100FD80083120313CF01D001D101D201D3018313AE
:100FE800A0308400C0300A128A11CA240A128A1159
:080FF80083010A128A11732D16
:02400E007A3FF7
:00000001FF
