:100000000A128A11EC2F00308A000408840A820741
:10001000003443346F3475346E3474343A342034DD
:06002000253475340034A4
:100904000800313083120313900008006400800152
:10091400840A0406031900340406892CF0008312A7
:1009240003130C1E962C972C912C70089900080028
:10093400831603138717BF30870520309800903043
:100944008312031398001F308316031399000800C1
:10095400F2007208831203138600071087140D3007
:10096400F100FB30F000F00BB52CF10BB52CBA2CD8
:100974008312031387100800F20072088312031312
:100984008600071487140D30F100FB30F000F00BE3
:10099400C92CF10BC92CCE2C831203138710080029
:1009A400DD2C7308840000080A128A11BE240A127E
:1009B4008A110130F3077308840083130008031DB0
:1009C400E42CE52CD32C0800F12C710884000008D9
:1009D4000A128A1190240A128A110130F10771084F
:1009E400840083130008031DF82CF92CE72C08005D
:1009F400323083120313B5003008B6000030B7005C
:100A0400B801B901BF01C0013630AC000030AD00FF
:100A14003108AE003530AF000A128A111D250A12C2
:100A24008A118312031338083007B4003408840091
:100A3400831380010800831203132E08FD00312D57
:100A4400831203132C08A0002D08A1007D30A200FE
:100A54002F08A3000A128A1128270A128A117D0876
:100A640084000A128A1103200A128A11003A031D13
:100A74003C2D3D2D222D83120313AC01AD01080042
:100A84008316031386010710871038300A128A115F
:100A9400AA240A128A110C300A128A11AA240A12F0
:100AA4008A1106300A128A11AA240A128A11013004
:100AB4000A128A11AA240A128A110D30F400FB309A
:100AC400F300F30B632DF40B632D682D08007008FD
:100AD400710403196E2D6F2D9C2D0130F4007B2DB4
:100AE40001300310F00DF10DFF3E031D732D013095
:100AF400F407F11F7E2D7F2D722D71087302031DE3
:100B0400852D70087202031C882D892D8F2D700885
:100B1400F2027108031CF303F30201300310F10C19
:100B2400F00CFF3E031D902D0130F402031D9B2D9C
:100B34009C2D7F2D7308F1007208F0000800F40169
:100B4400F501F601F701831203138F018E010C10D6
:100B5400C42D8818AE2DAF2DC42D8230F300DD30A6
:100B6400F200F20BB32DF30BB32DB82D0130F407C3
:100B74000318F50A0030F50783120313881CC32DEC
:100B8400C42DBE2D0C1CC72DC82DAB2D0C1001304F
:100B9400F6070318F70A0030F707023077021C3013
:100BA40003197602031CD72DD82DA52D7508F10045
:100BB4007408F0000800F401F501700871040319C9
:100BC400E42DE52D1A2E0130F600F12D013003102D
:100BD400F00DF10DFF3E031DE92D0130F607F11F65
:100BE400F42DF52DE82D01300310F40DF50DFF3E25
:100BF400031DF62D71087302031D022E7008720284
:100C0400031C052E062E0D2E7008F2027108031C1B
:100C1400F303F302741401300310F10CF00CFF3EE3
:100C2400031D0E2E0130F602031D192E1A2EF52D6A
:100C34007508F1007408F000080083160313881483
:100C440081130A128A1142250A128A110A128A1180
:100C54009A240A128A110A128A1183240A128A1106
:100C64000A128A11A1250A128A1171088312031328
:100C7400CF007008CE0001300A128A11AA240A1289
:100C84008A11443083120313B0000130B1004F08BD
:100C9400B3004E08B2000A128A11FA240A128A1109
:100CA4004430F3000A128A11D2240A128A11443001
:100CB40083120313B0000830B1004F08B3004E088C
:100CC400B2000A128A11FA240A128A114430F1007D
:100CD4000A128A11E6240A128A110D300A128A11A4
:100CE40090240A128A110A300A128A1190240A12D4
:100CF4008A111A3083120313C3005E30C2006D30B0
:100D0400C100C10B832EC20B832EC30B832E8A2EEC
:100D1400322E0A128A110028720873040319932EC2
:100D2400942E9A2E72087304031D992E9A2EA12EC6
:100D340070080A128A1182240A128A11272F720853
:100D4400093EF40073080318013E003EF5007408E0
:100D540084008317751C83130008F600840A0008B6
:100D6400F700760877040319B82EB92EEB2E720813
:100D7400093EF40073080318013E003EF5007408B0
:100D840084008317751C83130008F600840A000886
:100D9400F7007208023EF80073080318013E003E93
:100DA400F900780884008317791C83130008FA007B
:100DB400840A0008FB007B08803AFC007708803A2C
:100DC4007C02031DE72E76087A020318EA2EEB2E26
:100DD400272F720884008317731C83130008F40000
:100DE400840A0008F5007208023EF600730803182E
:100DF400013E003EF700760884008317771C8313B6
:100E040000087407F9007508F8000318F80A801F31
:100E14000C2FF8037808FA007908840083177A1CE9
:100E24008313700880007208023EF40073080318EC
:100E3400013E003EF500740884008317751C83137B
:100E440001308007840A0318800A08008312031300
:100E540022088400000884000A128A1103200A125E
:100E64008A11253A031D372F382FD22F22088400E8
:100E740001308007D001D1010030D400FF30D2000E
:100E8400FF30D300220884000008AA002A08840046
:100E94000A128A1103200A128A11753A031D532F6C
:100EA400542FCB2F2308840083130008FF00023043
:100EB40080077F0884000008A600840A0008A700B1
:100EC400220884002A08013E8000C02F2030AB0095
:100ED4000130AB022B08A03E84000A30F000003041
:100EE400F1002708F3002608F2000A128A11692586
:100EF4000A128A117008303E831380000A30F00011
:100F04000030F100831203132708F3002608F200CF
:100F14000A128A11DD250A128A1171088312031339
:100F2400A7007008A6002608270403199A2F9B2FF0
:100F3400B92F2B08031D9F2FA02F6A2FB92F2B0821
:100F4400A03E840083130008A400A5012408F00037
:100F54002508F1002008F2002108F3000A128A1182
:100F64008E260A128A11013083120313AB07203034
:100F74002B06031DBE2FBF2FA12FEB2F2A088400A1
:100F84000A128A1103200A128A11753A0319682F6A
:100F9400CB2F831203132208840001308007EB2F28
:100FA40022088400000884000A128A1103200A120D
:100FB4008A11A400A5012408F0002508F1002008E6
:100FC400F2002108F3000A128A118E260A128A11ED
:100FD400CB2F080083120313D001D101D201D30116
:100FE400D4018313A0308400C0300A128A118824EB
:0C0FF4000A128A1183010A128A111F2EB2
:02400E003A3F37
:00000001FF
