:100000000A128A11FC2F00308A000408840A820731
:1000100000344134443443342034563441344C3475
:0A002000553445343A3420340034DE
:100C9C00F2007208831203138600071407150D3037
:100CAC00F100FB30F000F00B592EF10B592E5E2E9B
:100CBC008312031307110800F20072088312031346
:100CCC008600071007150D30F100FB30F000F00B1B
:100CDC006D2EF10B6D2E722E83120313071108006B
:100CEC00852E730884000A128A1103200A128A11B5
:100CFC000A128A114E260A128A110130F307730860
:100D0C0084000A128A1103200A128A11003A031D68
:100D1C00902E912E772E080038300A128A116226F6
:100D2C000A128A110C300A128A1162260A128A11CE
:100D3C0006300A128A1162260A128A1180300A12AF
:100D4C008A1162260A128A110D30F400FB30F3006E
:100D5C00F30BAE2EF40BAE2EB32E080077087804EE
:100D6C000319B92EBA2EE72E0130FB00C62E013026
:100D7C000310F70DF80DFF3E031DBE2E0130FB07CF
:100D8C00F81FC92ECA2EBD2E78087A02031DD02E4C
:100D9C0077087902031CD32ED42EDA2E7708F902A9
:100DAC007808031CFA03FA0201300310F80CF70C54
:100DBC00FF3E031DDB2E0130FB02031DE62EE72E4A
:100DCC00CA2E7A08F8007908F7000800F401F5013A
:100DDC00700871040319F32EF42E292F0130F6003C
:100DEC00002F01300310F00DF10DFF3E031DF82E06
:100DFC000130F607F11F032F042FF72E01300310DB
:100E0C00F40DF50DFF3E031D052F71087302031D34
:100E1C00112F70087202031C142F152F1C2F700831
:100E2C00F2027108031CF303F30274140130031073
:100E3C00F10CF00CFF3E031D1D2F0130F602031DBB
:100E4C00282F292F042F7508F1007408F0000800D2
:100E5C00831603130710071186010F3085000A1241
:100E6C008A1192260A128A110130F3000A128A1191
:100E7C0076260A128A118B300A128A1162260A12FD
:100E8C008A1185300A128A1175270A128A11C0300C
:100E9C000A128A1162260A128A118D300A128A11DC
:100EAC0075270A128A11C5300A128A1162260A1293
:100EBC008A1195300A128A1175270A128A11CA30C2
:100ECC000A128A1162260A128A119D300A128A119C
:100EDC0075270A128A11412F0A128A1100288312CF
:100EEC000313A00020089F00C030831603139F003B
:100EFC0083121F19822F832F7E2F1E08A2008316A8
:100F0C0003131E0883120313A100E830F000033012
:100F1C00F1002208F3002108F2000A128A11EC26D3
:100F2C000A128A117008303E0A128A114E260A12D1
:100F3C008A110A30F7000030F8006430F0000030FD
:100F4C00F100831203132208F3002108F2000A12A5
:100F5C008A11EC260A128A117108FA007008F9003D
:100F6C000A128A11B4260A128A117708303E0A1224
:100F7C008A114E260A128A110A30F7000030F80046
:100F8C000A30F0000030F100831203132208F30042
:100F9C002108F2000A128A11EC260A128A11710831
:100FAC00FA007008F9000A128A11B4260A128A1182
:100FBC007708303E0A128A114E260A128A110A301C
:100FCC00F7000030F800831203132208FA002108FE
:100FDC00F9000A128A11B4260A128A117708303ED7
:100FEC000A128A114E260A128A11080083010A126B
:040FFC008A112E2FF9
:02400E003A3F37
:00000001FF
