:100000000A128A11FC2F00308A000408840A820731
:10001000003445346E3474346534723420347434AE
:1000200068346534203473347434723469346E3413
:0C00300067343A340A340D340D340034C7
:100F4600831203138C1EA82FA92FA32F1A0808009B
:100F5600F000831203130C1EB12FB22FAC2F7008B2
:100F660099000800203083160313980090308312EE
:100F7600031398001F308316031399000800D12F1E
:100F8600710884000A128A1103200A128A110A12B1
:100F96008A11AB270A128A110130F1077108840001
:100FA6000A128A1103200A128A11003A031DDC2F45
:100FB600DD2FC32F080083160313871707130A12A2
:100FC6008A11B5270A128A110130F1000A128A1114
:100FD600C2270A128A110A128A11A3270A128A1133
:100FE6000A128A11AB270A128A11EE2F0A128A11E7
:0A0FF600002883010A128A11DE2F81
:02400E007A3FF7
:00000001FF
