:100000000A128A11CA2FFF1B0D2883137F1883172A
:100010000008840A0319FF0A080000308A00040857
:10002000840A82070034353420345234653467340E
:1000300020346E346F3420346F346E346C34793441
:1000400000345034723461346A346934743468343E
:100050000034533461346E346A346134793400349A
:1000600052346134683475346C340034543461343F
:10007000723475346E34003453346134693400346E
:0E00800053347234693400342534643400344F
:1007E200080017341E342E3424340F342A346400A3
:1007F2008001840A0406031900340406F92BF71B4E
:10080200032C042C052C102C7609F8007709F9002A
:10081200F80A0319F90A7808F6007908F7000800BF
:10082200F2007208831203138600081388170D3032
:10083200F100FB30F000F00B1C2CF10B1C2C212CD6
:100842008312031388130800F20072088312031341
:100852008600081788170D30F100FB30F000F00B0E
:10086200302CF10B302C352C831203138813080023
:1008720038300A128A1111240A128A110C300A1213
:100882008A1111240A128A1106300A128A111124BD
:100892000A128A1101300A128A1111240A128A11CB
:1008A2000D30F400FB30F300F30B552CF40B552CF8
:1008B2005A2C0800333083120313B6003108B700F4
:1008C2000030B800B901BA01C001C1013730AD0032
:1008D2000030AE003208AF003630B0000A128A1182
:1008E2007E240A128A118312031339083107B500D4
:1008F20035088400831380010800831203132F0834
:10090200FD00922C831203132D08A0002E08A100D3
:100912007D30A2003008A3000A128A11E4260A12CE
:100922008A117D0884000A128A110D200A128A1186
:10093200003A031D9D2C9E2C832C83120313AD01C0
:10094200AE010800B82C7408FF00730884000A1274
:100952008A1103200A128A110A128A1125240A1204
:100962008A110130F3070318F40A0030F4077408FF
:1009720083120313FF00730884000A128A110320F2
:100982000A128A11003A031DC72CC82CA42C080095
:10099200F501F31FCD2CCE2CD52CF209F309F20A66
:1009A2000319F30A0130F500F11FD82CD92CDE2CE3
:1009B200F009F109F00A0319F10A70087104031928
:1009C200E32CE42C112D0130F400F02C0130031043
:1009D200F00DF10DFF3E031DE82C0130F407F11F6D
:1009E200F32CF42CE72C71087302031DFA2C700807
:1009F2007202031CFD2CFE2C042D7008F2027108F9
:100A0200031CF303F30201300310F10CF00CFF3E60
:100A1200031D052D0130F402031D102D112DF42CA0
:100A220075080319152D162D1B2DF209F309F20A6B
:100A32000319F30A7308F1007208F0000800F501C7
:100A4200F11F242D252D2C2DF009F109F00A03198F
:100A5200F10A0130F500F31F2F2D302D372DF20949
:100A6200F309F20A0319F30A0130F506F601F70158
:100A72007008710403193E2D3F2D742D0130F400CE
:100A82004B2D01300310F00DF10DFF3E031D432DE0
:100A92000130F407F11F4E2D4F2D422D013003106E
:100AA200F60DF70DFF3E031D502D71087302031D55
:100AB2005C2D70087202031C5F2D602D672D70087B
:100AC200F2027108031CF303F302761401300310DF
:100AD200F10CF00CFF3E031D682D0130F402031DE2
:100AE200732D742D4F2D75080319782D792D7E2DB8
:100AF200F609F709F60A0319F70A7708F1007608EA
:100B0200F0000800720873040319882D892D8F2DB7
:100B120072087304031D8E2D8F2D962D70080A12F4
:100B22008A11F1230A128A111C2E7208093EF4005E
:100B320073080318013E003EF50074088400831711
:100B4200751C83130008F600840A0008F700760873
:100B520077040319AD2DAE2DE02D7208093EF40085
:100B620073080318013E003EF500740884008317E1
:100B7200751C83130008F600840A0008F700720847
:100B8200023EF80073080318013E003EF90078089F
:100B920084008317791C83130008FA00840A000872
:100BA200FB007B08803AFC007708803A7C02031D38
:100BB200DC2D76087A020318DF2DE02D1C2E720838
:100BC20084008317731C83130008F400840A00084E
:100BD200F5007208023EF60073080318013E003E5B
:100BE200F700760884008317771C831300087407C4
:100BF200F9007508F8000318F80A801F012EF8039F
:100C02007808FA007908840083177A1C8313700825
:100C120080007208023EF40073080318013E003E91
:100C2200F500740884008317751C83130130800754
:100C3200840A0318800A0800831603138601081326
:100C4200881345308400831203135B0883138000EA
:100C5200840A5C088000840A5D088000840A5E08B9
:100C62008000840A5F088000840A600880000A12FB
:100C72008A1139240A128A11643083120313D700AD
:100C82000030D8000630D5000030D600D901DA0194
:100C9200D22E1A3083120313C4005E30C3006D30AB
:100CA200C200C20B522EC30B522EC40B522E592E0F
:100CB20080300A128A1111240A128A118312031334
:100CC2005908453E840083130008F3000030031DD9
:100CD2008030F4000A128A11A3240A128A118312A4
:100CE20003135A08803AFF0080307F02031D7B2ED7
:100CF2000530590203187E2E7F2EA62E4B3083120A
:100D02000313B1003230B2005808B4005708B300E0
:100D12000A128A115B240A128A11C0300A128A113D
:100D220011240A128A114B30F3000030F4000A1227
:100D32008A11A3240A128A11013083120313D707DE
:100D42000318D80A0030D807B52EC0300A128A110B
:100D520011240A128A110130F3008030F4000A12C1
:100D62008A11A3240A128A111A3083120313C400AF
:100D72005E30C3006D30C200C20BBD2EC30BBD2E50
:100D8200C40BBD2EC42E01300A128A1111240A127C
:100D92008A11013083120313D9070318DA0A0030CB
:100DA200DA075A08803AC2005608803A4202031D06
:100DB200DC2E55085902031CDF2EE02E4A2E3D2E52
:100DC2000A128A11002883120313220884000008E1
:100DD20084000A128A110D200A128A11253A031D73
:100DE200F32EF42EB02F2208840001308007E10197
:100DF200E2010030E500FF30E300FF30E4002208AA
:100E020084000008A700270884000A128A110D2016
:100E12000A128A11643A03190F2F102F1C2F270868
:100E220084000A128A110D200A128A11693A031DDE
:100E32001B2F1C2FA92F2308840083130008FF00F7
:100E4200023080077F0884000008A800840A000896
:100E5200A900220884002708013E80002030AC004F
:100E6200A91B342F362F0130372F0030A600013056
:100E7200AC022C08A03E84000A30F0000030F100E1
:100E82002908F3002808F2000A128A11C9240A125A
:100E92008A117108F7007008F6000A128A110024FC
:100EA2000A128A117608303E831380000A30F0005D
:100EB2000030F100831203132908F3002808F2001E
:100EC2000A128A1120250A128A1171088312031349
:100ED200A9007008A800280829040319712F722F8D
:100EE200772F2C08031D762F772F382F2C08031904
:100EF2007B2F7C2FA22F26080319802F812FA22F50
:100F02000130AC022C08A03E84002D3083138000F7
:100F1200A22F2C08A03E840083130008A400A50180
:100F22002408F0002508F1002008F2002108F3004F
:100F32000A128A1183250A128A11013083120313BD
:100F4200AC0720302C06031DA72FA82F8A2FC92FEC
:100F5200831203132208840001308007C92F22085C
:100F62008400000884000A128A110D200A128A11D4
:100F7200A400A5012408F0002508F1002008F200D1
:100F82002108F3000A128A1183250A128A11A92F55
:100F920008000A128A11F2230A128A11DB000A12CD
:100FA2008A11F3230A128A11DC000A128A11F4232D
:100FB2000A128A11DD000A128A11F5230A128A1115
:100FC200DE000A128A11F6230A128A11DF000A12BF
:100FD2008A11F7230A128A11E0008313A0308400D9
:100FE200C0300A128A11F8230A128A11E101E201C1
:0E0FF200E301E401E50183010A128A111D2EBC
:02400E007A3FF7
:00000001FF
